:100000000C94BA000C94D7000C94D7000C94D70031
:100010000C94D7000C94D7000C94D7000C94D70004
:100020000C94D7000C94D7000C94D7000C94D700F4
:100030000C94D7000C94D7000C94D7000C94D700E4
:100040000C94D7000C94D7000C94D7000C94D700D4
:100050000C94D7000C94A2010C94D7000C94D700F8
:100060000C94D7000C94D7000C94D7000C94D700B4
:100070000C94D700808386898C8F9295989C9FA240
:10008000A5A8ABAEB0B3B6B9BCBFC1C4C7C9CCCECE
:10009000D1D3D5D8DADCDEE0E2E4E6E8EAECEDEF55
:1000A000F0F2F3F5F6F7F8F9FAFBFCFCFDFEFEFFC3
:1000B000FFFFFFFFFFFFFFFFFFFFFEFEFDFCFCFB5E
:1000C000FAF9F8F7F6F5F3F2F0EFEDECEAE8E6E42A
:1000D000E2E0DEDCDAD8D5D3D1CECCC9C7C4C1BF0B
:1000E000BCB9B6B3B0AEABA8A5A29F9C9895928FB1
:1000F0008C8986837F7C797673706D6A6763605DB7
:100100005A5754514F4C494643403E3B38363331A1
:100110002E2C2A272523211F1D1B191715131210FA
:100120000F0D0C0A0908070605040303020101006C
:1001300000000000000000000000010102030304B1
:1001400005060708090A0C0D0F1012131517191BC5
:100150001D1F212325272A2C2E313336383B3E40C4
:100160004346494C4F5154575A5D6063676A6D70FE
:100170007376797C11241FBECFEFD2E0DEBFCDBFF6
:1001800011E0A0E0B1E0E8E9F3E002C005900D92D3
:10019000A030B107D9F711E0A0E0B1E001C01D9295
:1001A000A430B107E1F70E942C010C94CA010C9411
:1001B000000080E880936100109261008091D0007F
:1001C00084608093D00029E130E040E25EE405C025
:1001D000CA010197F1F7215030408091D20080FD93
:1001E00004C021153105A1F733C01216130684F59A
:1001F0008091D00081608093D00089B58D7F89BDCA
:1002000089B5817E866089BD8091D000877F80938B
:10021000D00024E630E040E25EE405C0CA01019768
:10022000F1F72150304009B400FC04C0211531051C
:10023000A9F706C0121613061CF420E030E002C035
:1002400022E030E08091D8008F7D8093D80002C0FA
:1002500021E030E0C901089584B7877F84BF88E139
:100260000FB6F89480936000109260000FBE87B1C3
:10027000806387B988B18F7C88B90E94D9000097C4
:10028000E9F0449A80FD05C028EE33E040E951E0F2
:1002900006C0FFCFCA010197F1F721503040211568
:1002A0003105C1F7449888EE93E0FA013197F1F7F0
:1002B0000197D9F7449A28EE33E0ECCF84B58C7FD0
:1002C00084BD85B5877F85BD85B5887F816085BD07
:1002D00080916E00816080936E00789420EC40ECF9
:1002E0005DE5CA010197F1F7F894E22FF0E0EC58D0
:1002F000FF4F2F5FE491E09301017894203489F758
:1003000030EC40EC5DE5CA010197F1F7F894E22F7B
:10031000F0E0EC58FF4F2F5FE491E0930101E32FF1
:10032000F0E0EC58FF4F3F5FE491E09300017894D8
:10033000EACF87B1806387B988B18F7C88B981E0C3
:1003400090E008951F920F920FB60F9211248F9391
:100350009F9380910301909100018F5F809303012F
:100360008150891710F4449A01C044988091020189
:10037000909101018F5F809302018150891710F4E1
:10038000459A01C045989F918F910F900FBE0F9095
:080390001F901895F894FFCFAF
:00000001FF
